:020000040800F2
:100000000050002071160008111600081316000891
:100010001516000817160008191600080000000041
:100020000000000000000000000000001B16000897
:100030001D160008000000001F1600082116000809
:10004000B9160008B9160008B9160008B916000854
:10005000B9160008B9160008B9160008B916000844
:10006000B9160008B9160008B9160008B916000834
:10007000B9160008B9160008B9160008B916000824
:10008000B9160008B9160008B9160008B916000814
:10009000B9160008B9160008B9160008B916000804
:1000A000B9160008B9160008B9160008B9160008F4
:1000B000B9160008B9160008B9160008B9160008E4
:1000C000B9160008B9160008B9160008B9160008D4
:1000D000B9160008B9160008B9160008B9160008C4
:1000E000B9160008B9160008B9160008000000008B
:1000F0000000000000000000000000000000000000
:0C01000000000000000000005FF808F1A3
:10010C0010B5054C237833B9044B13B10448AFF345
:10011C0000800123237010BD0C00002000000000A3
:10012C001417000808B5034B1BB103490348AFF380
:10013C00008008BD0000000010000020141700080B
:10014C0038B50E4B054618784FF47A73B3FBF0F3C1
:10015C000B4A1068B0FBF3F000F0E2FA044658B911
:10016C000F2D09D8024629464FF0FF3000F0A4FAB3
:10017C00044B20461D6038BD012038BD0000002016
:10018C000800002004000020074A08B5136803206B
:10019C0043F01003136000F07DFA0020FFF7D0FF4E
:1001AC0001F0B0F9002008BD00200240034A044BC6
:1001BC0011681B780B441360704700BF28000020A7
:1001CC0000000020014B1868704700BF2800002079
:1001DC00F7B5002604460D460196FFF7F3FF23689A
:1001EC0007469A68D20508D50120A36A84F82460D2
:1001FC0043F02003A36203B0F0BD5A68D60503D4C4
:10020C00DB6A13F4700F3BD03A4B02201E6800F0EF
:10021C0085FE2368384A1969B6FBF0F01142374A5B
:10022C004FD1DE6836490E424BD11969114259D172
:10023C00DA68344B1A4214BF2923142300FB03F64B
:10024C00019B9E4220D96B1C05D05DB1FFF7BAFF14
:10025C00C01B854206D3019B01330193F0E7681C58
:10026C000FD045B9A36A032043F00403A362002313
:10027C0084F82430BFE7FFF7A5FFC01B8542F1D3FC
:10028C00226813689907EAD56FF01203226813608D
:10029C00A36A43F40073A362936803F46023B3F579
:1002AC00602F25D1E3681BBBA36A23F48073A36280
:1002BC00A06A10F480501BD1A36A43F00103A3621F
:1002CC0099E71969114203D1D9680E4A11420BD032
:1002DC0019690D4A114209D1DB68134214BFFC2382
:1002EC005423ABE72923A9E75423A7E7FC23A5E76D
:1002FC00002080E70800002024499224922449120F
:10030C002449920092244900499224000368D86C35
:10031C0070470000002373B5019390F82430012B33
:10032C0074D001234D6880F82430062D02684FEA02
:10033C0085030C6825D82B441F25566B053B9D4027
:10034C0026EA050504FA03F32B435363092C4FEA01
:10035C0044038D682FD907262344D1681E3B9E4049
:10036C0021EA060105FA03F30B43D360A4F1100351
:10037C00012B2BD90023002280F82420184602B030
:10038C0070BD0C2D0BD82B441F25166B233B9D40A9
:10039C0026EA050504FA03F32B431363D6E72B4433
:1003AC001F25D66A413B9D4026EA050504FA03F356
:1003BC002B43D362CAE70726116923449E4021EAE6
:1003CC00060105FA03F30B431361CFE7104B9A4276
:1003DC0016D193681B02CDD49368102C43F4000300
:1003EC009360C7D10B4B0C4A1B68B3FBF2F20A2388
:1003FC0053430193019B002BBCD0019B013BF8E7BD
:10040C00836A43F0200383620123B4E70223B5E738
:10041C00002401400800002040420F00002373B567
:10042C000193036804469A68D20702D5002002B0F3
:10043C0070BD9A6842F001029A60124B124A1B6816
:10044C00B3FBF2F30193019BC3B9FFF7BBFE064666
:10045C0023689D6815F00105E8D1FFF7B3FE801BFA
:10046C000228F5D9A36A84F8245043F01003A36240
:10047C00E36A012043F00103E362D8E7019B013BEF
:10048C00E0E700BF0800002040420F0090F8243045
:10049C0010B5012B044654D0012380F82430FFF70B
:1004AC00BDFF002849D1A36A274A23F4407323F0E7
:1004BC00010343F48073A3622368934204D123495C
:1004CC004A6812F4702F2ED1A26A22F48012A26212
:1004DC005A68520541BFA26A22F4405242F480523B
:1004EC00A262A26A12F480521CBFE26A22F00602D7
:1004FC00E262002284F824206FF002021A609A68EB
:10050C0002F46022B2F5602F13D10F4A934205D149
:10051C00A2F58062526812F4702F0AD19A6842F4E4
:10052C00A0029A6010BDA26A42F48012A2624A68CC
:10053C00CFE79A6842F48012F3E7002384F8243062
:10054C0010BD022010BD00BF002801400024014056
:10055C0038B5036804469A68D20701D4002038BD28
:10056C009A6822F001029A60FFF72CFE0546236878
:10057C009B68DB07F2D5FFF725FE401B0228F6D956
:10058C00A36A012043F01003A362E36A43F0010362
:10059C00E36238BD70B50446002871D0836A23B974
:1005AC00C36280F8243000F0CFFF2046FFF7D0FF65
:1005BC00A36A13F0100FA36A64D1002862D1E16919
:1005CC0023F48853626823F0020343F002030A43C6
:1005DC00A168A362E368B1F5807F42EA430238D098
:1005EC00012914BF06464FF480766569012D07D1A9
:1005FC00002B30D1A369013B46EA433545F4006634
:10060C002368B1F5807F5D6825F4694545EA0605E8
:10061C005D609E681D4D05EA060545EA02059D6074
:10062C0001D0012920D1216901390905DD6A25F4A0
:10063C0070052943D9629968154B0B409A4215D124
:10064C000023E362A36A23F0030343F00103A362D4
:10065C0070BD0E46C9E7A36A43F02003A362E36AA8
:10066C0043F00103E362CBE70021DFE7A36A23F049
:10067C00120343F01003A362E36A43F00103E36245
:10068C00012070BD43F01003A362F9E7FDF7E1FF11
:10069C00FE0E1FFF074A0002D36800F4E06023F44B
:1006AC00E0631B041B0C43F0BF6343F400330343B0
:1006BC00D360704700ED00E0174B30B5DC68C4F335
:1006CC000224C4F10703251D042B28BF0423062D87
:1006DC004FF0010598BF002405FA03F303F1FF3333
:1006EC0088BF033C1940A14005FA04F4013C2240A8
:1006FC00002842EA01024FEA0212AFBF00F160404B
:10070C00064B00F00F00D2B2A5BFD2B200F561408B
:10071C001A5480F8002330BD00ED00E014ED00E029
:10072C000138B0F1807F0AD2F021064B064A58609E
:10073C0082F823100020072298601A60704701206D
:10074C00704700BF10E000E000ED00E02DE9F74F2E
:10075C0000221646654BDFF8A4E1DFF8A4C14FF088
:10076C0001080C6808FA06F808EA0404A0457FD1D1
:10077C004D68122D00F0AF8000F28880022D00F041
:10078C00A7807CD8002D00F08E80012D00F09E807B
:10079C004FF00F09FF2C93BF824606F18045083DB0
:1007AC00D0F800B092BFB500D0F804B0AD0009FA93
:1007BC0005F82BEA080802FA05F588BF00F1040ACF
:1007CC0048EA0505CAF80050D1F804A01AF0805F79
:1007DC004ED0474D464FAD6926F0030845F0010554
:1007EC00BD61BD6908F1804805F00105019508F56A
:1007FC00803806F0030B019D4FEA8B0BD8F808509C
:10080C0009FA0BF925EA09093A4DA84268D005F511
:10081C008065A84266D005F58065A84264D005F5D0
:10082C008065A8420CBF0325042505FA0BF545EAA3
:10083C000905C8F808501D681AF4803F14BF2543F9
:10084C00A5431D605D681AF4003F14BF2543A54302
:10085C005D609D681AF4801F14BF2543A5439D60FD
:10086C00DD681AF4001F14BF2C4325EA0404DC6075
:10087C000136102E7FF473AF03B0BDE8F08F032D5B
:10088C0022D0112D84D1CA68043281E71A4FBD429F
:10089C0009D012D8DFF86C904D4504D009F5803999
:1008AC004D457FF475AF8A68C2B1012A0CBFC0F800
:1008BC001080C0F8148008226AE77545F3D06545AE
:1008CC00F1D0DFF84490EBE7002261E7CA685FE7FC
:1008DC00CA6808325CE7CA680C3259E7042257E749
:1008EC000025A2E70125A0E702259EE700040140B0
:1008FC0000100240000801400000211000003110DF
:10090C000000321000001110000022100AB1016129
:10091C0070470904FBE7000003682DE9F341DB078E
:10092C00054610D42B689F075ED42B68190700F17D
:10093C0095802B685A0700F1BF80EA69002A40F0C5
:10094C002D81002014E0904C636803F00C03042B01
:10095C0007D0636803F00C03082B0CD16368DE032B
:10096C0009D523689C03DDD56B68002BDAD10120F7
:10097C0002B0BDE8F0816B68B3F5803F10D12368FD
:10098C0043F480332360FFF71DFC0646236898036D
:10099C00C8D4FFF717FC801B6428F7D90320E7E7BE
:1009AC009BB9236823F480332360236823F48023CA
:1009BC002360FFF707FC064623689903B2D5FFF7BF
:1009CC0001FC801B6428F7D9E8E7B3F5A02F236856
:1009DC0003D143F480232360D1E723F480332360D5
:1009EC00236823F48023CDE7674C636813F00C0F66
:1009FC0007D0636803F00C03082B10D16368DA038B
:100A0C000DD423689B0702D52B69012BAFD123682A
:100A1C006A6923F0F80343EAC203236085E72A6975
:100A2C005A4B6AB101221A60FFF7CCFB06462368C9
:100A3C009F07ECD4FFF7C6FB801B0228F7D9ADE764
:100A4C001A60FFF7BFFB0646236898077FF56DAF6A
:100A5C00FFF7B8FB801B0228F6D99FE7AA694A4C1E
:100A6C004B4BDAB101221A60FFF7ACFB0646636A06
:100A7C009B070DD54FF4FA52464B1B68B3FBF2F3B0
:100A8C00019300BF019B5A1E0192002BF9D150E734
:100A9C00FFF798FB801B0228E9D97FE71A60FFF764
:100AAC0091FB0646636A9F077FF543AFFFF78AFB0E
:100ABC00801B0228F6D971E7334CE369D80024D4A3
:100ACC000127E36943F08053E361E36903F080534A
:100ADC000093009B304E3368D90518D5EB68012B79
:100AEC0026D1236A43F001032362FFF76BFB41F22B
:100AFC0088368046236A9B073FD5002F3FF41DAFF5
:100B0C00E36923F08053E36117E70027E2E73368DA
:100B1C0043F480733360FFF755FB80463368DA0586
:100B2C00DCD4FFF74FFBA0EB08006428F6D935E7BF
:100B3C00ABB9236A41F2883823F001032362236A9C
:100B4C0023F004032362FFF73DFB0646236A980754
:100B5C00D3D5FFF737FB801B4045F7D91EE7052B94
:100B6C00236A03D143F004032362BAE723F00103A1
:100B7C002362236A23F00403B6E7FFF723FBA0EB01
:100B8C000800B042B6D909E700100240000042420A
:100B9C00800442420800002000700040224C636830
:100BAC0003F00C03082B3FF4E2AE00231F4E022A85
:100BBC0033602BD1FFF706FB0746236899011FD43E
:100BCC002B6AB3F5803F05D16268A96822F4003224
:100BDC000A436260696A62680B4322F4741213431D
:100BEC00636001233360FFF7EDFA054623689A0131
:100BFC003FF5A7AEFFF7E6FA401B0228F6D9CDE683
:100C0C00FFF7E0FAC01B0228D7D9C7E6FFF7DAFADC
:100C1C00054623689B017FF594AEFFF7D3FA401B82
:100C2C000228F6D9BAE600BF00100240600042422A
:100C3C0030B5194B87B002AC03F110052246186889
:100C4C005968083303C2AB421446F7D101238DF81F
:100C5C000430022311498DF805304B6803F00C0267
:100C6C00082A17D1C3F3834206A80244DB0312F807
:100C7C00102C0CD54B680A48C3F34043504306AACA
:100C8C00134413F8143CB0FBF3F007B030BD054827
:100C9C005043FAE70248F8E72C170008001002400E
:100CAC0000127A0000093D00544A2DE9F041136806
:100CBC00054603F007038B420E462AD329688C079E
:100CCC0034D4CA0747D44D4A136803F007039E4235
:100CDC00C0F082802A684A4C12F0040F40F08780E2
:100CEC00130706D563682A6923F4605343EAC203E9
:100CFC006360FFF79DFF6368424AC3F30313D35C41
:100D0C00D840414B18600020FFF71AFA0020BDE8CC
:100D1C00F081136823F007030B431360136803F08F
:100D2C0007039942CAD00120BDE8F081344B11F081
:100D3C00040F1EBF5A6842F4E0625A60080742BFB3
:100D4C005A6842F460525A605A68A86822F0F0025D
:100D5C0002435A60B5E76A68294C012A23681CD102
:100D6C0013F4003FDFD0636841F2883823F00303AB
:100D7C0013436360FFF726FA6B680746012B14D107
:100D8C00636803F00C03042B9DD0FFF71BFAC01B08
:100D9C004045F5D90320BDE8F081022A02D113F0B9
:100DAC00007FDFE713F0020FDCE7022B0FD1636843
:100DBC0003F00C03082B86D0FFF704FAC01B404548
:100DCC00F5D9E7E7FFF7FEF9C01B4045E2D86368A9
:100DDC0013F00C0FF6D176E7136823F007033343B7
:100DEC001360136803F007039E429CD172E763689B
:100DFC00E96823F4E0630B43636071E70020024071
:100E0C00001002404C17000808000020044B054A53
:100E1C005B68C3F3C223D35C034A1068D8407047A5
:100E2C00001002405C1700080800002003682DE940
:100E3C00F341D907054620D5354CE369DA0032D4A5
:100E4C000127E36943F08053E361E36903F08053C6
:100E5C000193019B2F4E3368DB0526D5236A13F4CF
:100E6C00407336D1236A6A6823F4407313432362B8
:100E7C001FB1E36923F08053E3612868830706D52B
:100E8C00234AA968536823F440430B43536010F082
:100E9C0010001BD01E4AE9685368002023F480031D
:100EAC000B43536012E00027D4E7336843F480739C
:100EBC003360FFF787F980463368D805CED4FFF747
:100ECC0081F9A0EB08006428F6D9032002B0BDE834
:100EDC00F0816A6802F440729342C3D001200E4A3A
:100EEC00236A1060002023F4407110602162D9073E
:100EFC00B8D5FFF767F941F288380646236A9A0796
:100F0C00B0D4FFF75FF9801B4045F7D9DDE700BF90
:100F1C0000100240007000404004424270B504468C
:100F2C00354B86B002AD03F110062A461868596895
:100F3C00083303C2B3421546F7D101238DF80430B0
:100F4C0002239C428DF8053047D0102C17D0012C71
:100F5C004FD140F20231294A136A1940B1F5817F11
:100F6C0044D003F44073B3F5007F2DD149F64040D3
:100F7C00536A13F0020F08BF002006B070BD1F4B60
:100F8C005968186810F08070F7D0C1F3834206A836
:100F9C00024412F8100CCA0341BF5A6806A9C2F3E6
:100FAC004042521844BF12F8141C154A5B684CBFDF
:100FBC00B2FBF1F2134A5B0202FB00F0DDD4032317
:100FCC004000B0FBF3F0D8E7B3F5407F11D11368C4
:100FDC004FF2244013F4003FCDE7FFF717FF074B08
:100FEC005B68C3F3813301335B00EAE74FF40040E5
:100FFC00C3E70020C1E700BF3C1700080010024007
:10100C0000127A0000093D002DE9F04104468846A3
:10101C0017461D46069E2268936838EA03030CBFE8
:10102C00012300239F4202D10020BDE8F0816B1CFC
:10103C00F2D055BB23685A6822F0E0025A6062680D
:10104C00B2F5827F0AD1A268B2F5004F02D0B2F598
:10105C00806F03D11A6822F040021A60A26AB2F5BE
:10106C00005F09D11A6822F400521204120C1A60A3
:10107C001A6842F400521A60012384F8513000239C
:10108C00032084F85030BDE8F081FFF79BF8801BFB
:10109C008542C0D8CEE713B50B46009280210022C2
:1010AC000446FFF7B1FF20B10320636D43F020032A
:1010BC00636502B010BD2DE9FF411E4690F850301B
:1010CC000446012B0D46904600F09C80012380F8CD
:1010DC005030FFF777F8074694F85100C0B201285A
:1010EC0040F08E80002D4ED0B8F1000F4BD0032372
:1010FC0084F8513000236365A363A4F83680A3877A
:10110C00E38763642364A3682563B3F5004F236806
:10111C00A4F8348002BF1A6842F480421A601A683C
:10112C0052065EBF1A6842F040021A60E268B2F5DD
:10113C00006F626838D11AB1E28E92B2012A06D1E0
:10114C0035F8022BDA60E38E013B9BB2E386E38E2B
:10115C009BB293B900973346012202212046FFF738
:10116C0053FF78B93A4631462046FFF794FF0028E2
:10117C0038D020230120636505E023689A68900726
:10118C00DED44EB90320012384F85130002384F8B7
:10119C00503004B0BDE8F081711CD8D0FFF712F8C4
:1011AC00C01B8642D3D8EDE71AB1E28E92B2012A67
:1011BC0006D115F8012B1A73E38E013B9BB2E38623
:1011CC00E38E9BB2002BC5D023689A689207F0D4AB
:1011DC00002ED7D0731CF3D0FEF7F4FFC01B864251
:1011EC00EED8CFE7A36833B903932368DA68039288
:1011FC009B680393039B606D003018BF0120C2E70E
:10120C000220C0E70220C4E710B50446002834D001
:10121C000023836290F851300BB900F0C3F902231C
:10122C00216884F851300B68A06823F040030B60F0
:10123C006368A2690343E068034320690343606960
:10124C000343E0690343206A0343A06A034302F4A7
:10125C00007003430B60120C636A02F004021A4321
:10126C00E36A4A600B61CB69002023F40063CB6115
:10127C000123606584F8513010BD012010BD10B5FC
:10128C0001EBC2020723C021F82410F0010F14BF98
:10129C00D454D15413F1FF334FEA5000F5D210BDA2
:1012AC00F8B51D46074616469DF81840084604EB4F
:1012BC004404E4B219462246FFF7E1FF621C2946BA
:1012CC003846D2B2FFF7DBFFA21C29463046BDE8F8
:1012DC00F840D2B2FFF7D3BF282230B595B00DEB52
:1012EC000200002100F008FA142210250DEB020078
:1012FC00002100F001FA2A46002101A800F0FCF9B7
:10130C00012302240E934FF430130AA813930A946A
:10131C000F951194FFF700FB0F234FF48062059398
:10132C000023214605A80793089209930694FFF71A
:10133C00BBFC4FF4804301A801940393FFF776FDA7
:10134C0015B030BD2DE9F0411026ADF57C7D642241
:10135C00002105A800F0D0F9FEF716FFFFF7BCFF3F
:10136C00324600211EA800F0C7F95F4B4FF4005124
:10137C009A695E4832439A619A690024324003921A
:10138C00039A9A69012742F004029A619B69002230
:10139C0003F004030493049B4FF40058FFF7B6FAD0
:1013AC0002231EA9514821931F97CDF878802094D1
:1013BC00FFF7CCF91EA94E481E961F942094FFF7F8
:1013CC00C5F94FF482734B4D4B4A284685E80C0007
:1013DC004FF40073AB610A23EE61EB62474EAC60D5
:1013EC00EC602C616C612C626C62AC62FFF70CFFE0
:1013FC00434B304633604FF46023F760F361376141
:10140C001E941F942094B46074617460FFF7C2F84A
:10141C0006231EA930461E931F972097FEF77AFFCE
:10142C003046FFF733F8224641463048FFF76EFA54
:10143C002F4664213046FEF7CBFEE0B93046FEF76E
:10144C0065FF83B2B3F5FA6F18D32420A3F5FA65C0
:10145C0095FBF0F5ADB2252D28BF2525AC4234D235
:10146C00A542E3B22CDD132C0ADC0022642100938C
:10147C001EAB104610E025462C46DAE70125EDE7B9
:10148C00A4F11402092A4FF0000299BFFA21F020AE
:10149C001146642000931EAB0134FFF701FF242C8E
:1014AC00DEDD05A9FA2364223846FFF704FE4FF46B
:1014BC007A734FF45E721EA93846FFF7FCFDDBE72A
:1014CC000022009311461EABD3E70BD9AC42E8DBEC
:1014DC000022E3B2009311461EAB1046FFF7E0FE6C
:1014EC00013CF3E7C8D0DCE70010024000100140DB
:1014FC00000801405C000020003001402C0000205E
:10150C00002401400E4B82B09A6942F001029A61AC
:10151C009A6902F001020092009ADA6942F0805254
:10152C00DA61DB69074A03F080530193019B53682E
:10153C0023F0E06343F08063536002B0704700BF58
:10154C00001002400000014010B5044686B0102285
:10155C00002102A800F0D0F82268104B9A421BD14F
:10156C0003F56C439A6902A942F400729A619A6974
:10157C000B4802F400720092009A9A6942F004023D
:10158C009A619B6903F004030193019B402302932E
:10159C0003230393FFF7DAF806B010BD00240140D3
:1015AC000008014010B5044686B01022002102A8A4
:1015BC0000F0A2F82268114B9A421DD103F560434A
:1015CC009A6902A942F480529A619A690C4802F411
:1015DC0080520092009A9A6942F004029A619B69C7
:1015EC0003F004030193019BA023029302230393B2
:1015FC0003230593FFF7AAF806B010BD0030014095
:10160C00000801407047FEE7FEE7FEE7FEE7704783
:10161C0070477047FEF7CABD0F4B1A6842F00102C3
:10162C001A6059680D4A0A405A601A6822F084728E
:10163C0022F480321A601A6822F480221A605A68E6
:10164C0022F4FE025A604FF41F029A604FF00062BF
:10165C00034B9A60704700BF001002400000FFF877
:10166C0000ED00E0002103E00B4B5B5843500431CC
:10167C000A480B4B42189A42F6D30A4A02E000235E
:10168C0042F8043B084B9A42F9D3FFF7C5FF00F030
:10169C000FF8FFF757FE70476C170008000000208A
:1016AC000C0000200C000020B4000020FEE700001D
:1016BC0070B500250C4E0D4CA41BA410A54209D1ED
:1016CC0000F022F800250A4E0A4CA41BA410A542D7
:1016DC0005D170BD56F8253098470135EEE756F820
:1016EC00253098470135F2E76417000864170008A5
:1016FC00641700086817000803460244934200D19F
:10170C00704703F8011BF9E7F8B500BFF8BC08BC3B
:10171C009E467047F8B500BFF8BC08BC9E467047A3
:10172C0002030405060708090A0B0C0D0E0F101016
:10173C0002030405060708090A0B0C0D0E0F101006
:10174C000000000000000000010203040607080965
:08175C0000000000010203047B
:041764003101000847
:041768000D01000867
:0C176C00010000001000000000A24A0470
:040000050800167168
:00000001FF
